:020000040800F2
:10000000580A0020D5020008633700088935000827
:1000100061370008AD1F00087D40000800000000A7
:10002000000000000000000000000000C5380008CB
:10003000D1220008000000009D3700088D3A00081A
:10004000EF020008EF020008EF020008EF020008CC
:10005000EF020008EF020008EF020008EF020008BC
:10006000EF020008EF020008EF020008EF020008AC
:10007000EF020008EF020008EF020008EF0200089C
:10008000EF020008EF020008EF020008EF0200088C
:10009000EF020008EF020008EF020008EF0200087C
:1000A000EF020008EF020008EF020008EF0200086C
:1000B000EF020008EF020008EF020008EF0200085C
:1000C000EF020008EF020008EF020008EF0200084C
:1000D000EF02000869400008EF020008EF02000884
:1000E000EF020008EF020008EF020008EF0200082C
:1000F000EF020008EF020008EF020008EF0200081C
:10010000EF020008EF020008EF020008EF0200080B
:10011000EF020008EF020008EF020008EF020008FB
:10012000EF020008EF02000815220008EF020008A5
:10013000EF020008EF020008EF020008EF020008DB
:10014000EF020008EF020008EF020008EF020008CB
:10015000EF020008EF02000821220008EF02000869
:10016000EF020008EF020008EF020008EF020008AB
:10017000EF020008EF020008EF0200080000000094
:10018000EF020008EF02000800F002F800F092F819
:100190000AA090E8000C82448344AAF10107DA45E2
:1001A00001D100F087F8AFF2090EBAE80F0013F0A2
:1001B000010F18BFFB1A43F0010318476047000006
:1001C00080470000103A24BF78C878C1FAD8520797
:1001D00024BF30C830C144BF04680C6070470000C1
:1001E0000023002400250026103A28BF78C1FBD840
:1001F000520728BF30C148BF0B6070476E2900F01E
:10020000ED81702900F03583662904F0E2826529CA
:1002100004F0DF82672904F0DC82612904F0DB82CC
:1002200003681B0A28BF41F08001692900F09C8106
:10023000642900F09981752900F096816F2900F0FA
:10024000C382782900F00183E92900F05F82E42964
:1002500000F05C82F52900F05982EF2900F0C0829D
:10026000F82900F000830368DB0928BF41F0800112
:10027000632901F00180732901F00680E32901F070
:100280001180F32901F01680002070471FB504F09B
:100290009BFA01F065F804000020002104F07EFACA
:1002A000401C60600020002104F062FAE0601FBD85
:1002B00010B510BD01F026F81146FFF7E7FF04F076
:1002C000A9F801F0FDF803B4FFF7F2FF03BC01F059
:1002D0003DF900000948804709480047FEE7FEE76E
:1002E000FEE7FEE7FEE7FEE7FEE7FEE7FEE7FEE7E6
:1002F00004480549054A064B70470000293B0008A1
:100300008901000858040020580A002058060020DF
:100310005806002053EA020C00F069802DE9F04BEA
:100320004FF00006002B1FBFB3FA83F503FA05F464
:1003300024FA05F65E4012BF1643B2FA82F502FABD
:1003400005F4C5F120051EBF22FA05FC44EA0C04A1
:10035000203556EA044C4FEA144418BF641C4FF091
:1003600000084FF00009904271EB030C39D30029CB
:1003700019BFB1FA81F701FA07F6B0FA80F700FA6F
:1003800007F6C7F120071EBF20FA07FC46EA0C0655
:100390002037B6FBF4FCA7EB0507103F07F01F0B57
:1003A000CBF120060CFA0BFB2CFA06F644BFB34641
:1003B0000026202FA4BF5E464FF0000B5BEA060C20
:1003C00008BF4FF0010B19EB0B09ABFB027C48EBAC
:1003D0000608C01B06FB02CC0BFB03CC71EB0C0127
:1003E000C1E70B46024641464846BDE8F08B13B5CF
:1003F0004FF000004FF00001AFF30080BDE81C405B
:10040000704700007CB51D4616460C00009001D0D8
:100410002044401E074B7B442A46694601903046E3
:1004200000F0F5F805461CB10020694600F002F91D
:1004300028467CBD250200004FF0000200B513469F
:1004400094469646203922BFA0E80C50A0E80C50F4
:10045000B1F12001BFF4F7AF090728BFA0E80C50A5
:1004600048BF0CC05DF804EB890028BF40F8042B9E
:1004700008BF704748BF20F8022B11F0804F18BF0B
:1004800000F8012B704770477047704710B500F0B7
:10049000BFFA006810BD10B5044600F0B9FA046058
:1004A00010BD70B5044685690068C10601D53026C7
:1004B00000E02026C00707D070BDD4E901213046F6
:1004C0009047206A401C20626D1EF6D570BD70B545
:1004D000044685690078C00707D170BDD4E90121C1
:1004E00020209047206A401C20626D1EF6D570BD0A
:1004F00009684A0501D540B27047C905FCD500B26C
:10050000704709684A0501D5C0B27047C905FCD5D6
:1005100080B2704770B50C460546012A05D0287890
:10052000800600D5EA69002302E0012305E05B1C98
:10053000934202D2E05C0028F9D1A869E618C01AFB
:10054000A861286A184428622846FFF7AAFF04E039
:10055000D5E9012114F8010B9047B442F8D328469D
:10056000FFF7B5FF70BD00002DE9F04106460024FD
:1005700010687529314615A510D0FFF7B9FF00287E
:1005800002DA404212A507E031688A0701D511A5B9
:1005900002E0490704D510A5012401E0FFF7B1FFEF
:1005A00000210A2306F1240707E0B0FBF3F203FB66
:1005B0001200303078541046491C0028F5D12346EB
:1005C0002A463046BDE8F04100F06BBA000000005A
:1005D0002D0000002B0000002000000011680268C0
:1005E000006A530501D508700AE0D30501D50880DB
:1005F00006E0130603D5C217C1E9000200E0086057
:100600000120704701694A1C02610878704700B5F3
:100610008FB0CDE901310021059105497944CDE93B
:1006200003101146684600F02FF90FB000BD00001E
:10063000E5FFFFFF0A6802F8010B0A607047D1E985
:1006400000239A4202D2531C0B60107070470000C6
:100650002DE9FF5F15468A460446DFF8AC80F84472
:100660000027D8E900103E46CDE9001010E03AF826
:1006700016106A4602A800F021FE411C07D021781E
:10068000890603D5E269391891420DD80744761CD2
:100690002078800602D5E069B84205DDAE42E6DB8F
:1006A0003AF816000028E2D1A069C01BA0612046DC
:1006B000FFF7F7FED8E90010CDE90010002017E0A1
:1006C0003AF818106A4602A800F0F8FDB0F1FF3FB2
:1006D00081460BD000250DF1080B05E0D4E901217E
:1006E0001BF8050090476D1C4D45F7D308F101003C
:1006F000B0428046E4DB206A384420622046FFF79F
:10070000E6FEBDE8FF9F00009A4100002DE9F041A0
:100710008046D21D22F007020025D2E90002F52909
:1007200014A612D0002A06DA0023D0EB030063EBF4
:10073000020211A608E0D8F800108B0701D50FA619
:1007400002E0490701D50EA601251146002408F153
:10075000240704E000F060F930323A55641C50EA96
:100760000102F7D12B46324621464046BDE8F04112
:1007700000F097B9000000002D0000002B000000E1
:100780002000000030B4002100F1240408E002F051
:100790000705D208303542EA4372DB086554491C2C
:1007A00052EA0305F3D10468002310A2250708D5F7
:1007B00004F020040C4304D0C46901230CA2641E7D
:1007C000C46130BC00F06DB910B504462146106814
:1007D000FFF797FE02462046BDE810400023D1E710
:1007E000D21D22F00701D1E90023CBE70000000071
:1007F00030000000F0B40D460188090502D5214CF7
:100800007C4402E01F4C7C440E34002100F124069D
:1008100008E002F00F071209E75D42EA03721B09C4
:100820007754491C52EA0307F3D1027800231207D8
:1008300004D5702D06D009B1022311342246F0BC34
:1008400000F02FB901231034F8E770B504460D46C7
:1008500021461068FFF755FE024629462046BDE8AE
:1008600070400023C6E7D21D22F00703D3E900231E
:10087000C0E70368126843F0200303600823C361E4
:100880000023B7E7004000002DE9F05F89460446E9
:100890004FF0000ADFF874B1FB44C0F820A02046F6
:1008A000E1688847002874D0252806D0D4E90121C2
:1008B0009047206A401C2062F1E700265F462046F0
:1008C000E16888472028054607DB312D05D27819D5
:1008D00010F8200C08B10643F1E7B00701D526F067
:1008E0000406C4F81CA00027C4F818A02A2D09D0BB
:1008F000284603F06DFD38B304EB8708303DC8F897
:10090000185019E059F8041B204604EB8702916146
:10091000E1688847012F054618D1E069002820DAF0
:1009200026F020061DE0D8F8180000EB800005EB4B
:1009300040003038C8F818002046E168884705466E
:1009400003F046FD0028EED1012F0AD02E2D08D14C
:100950002046E16888477F1C0546022F46F02006A6
:10096000C4DBA069002803DA404246F00106A0611A
:10097000F00701D026F010066C2D0BD0682D09D0A1
:100980004C2D39D06A2D35D0742D35D07A2D33D0F9
:1009900016E038E0E1682F4620468847B842054611
:1009A00009D16C2F26D04FF48060E16806432046C1
:1009B0008847054604E06C2F1AD04FF48070064338
:1009C0000DB3A5F14100192802D8203546F4006680
:1009D0004A462946204626604E46FFF70FFC80B166
:1009E00001280BD0F61D26F0070000F1080956E794
:1009F0004020E4E78020D8E70020D6E706F104098C
:100A00004DE7284652E7206ABDE8F09F903F00007E
:100A100000487047F803002030B5B0F10A024FEAF1
:100A2000900E71F100034EEA817EB0EB0E0061EB97
:100A300091014FEA101E4EEA017E10EB0E0041EBD1
:100A400011114FEA102E4EEA016E10EB0E0041EB31
:100A500011214FEA104E4EEA014E10EB0E0041EB11
:100A60001141401841F100014FEAD00040EA4170C5
:100A70004FEAD10110EB80054FEA810444EA9074FB
:100A800044EB01046D1944EB0404521BA3414FF0E5
:100A9000000348BF0A3200D530BD401C41F10001BF
:100AA00030BD2DE9F0470D4699469246044600F1C7
:100AB00024080168880604D5E06921F0100121604E
:100AC00000E00120A84201DD471B00E00027A169EA
:100AD0007A1902EB0900081AA0612078C00602D436
:100AE0002046FFF7DEFC002608E0D4E901211AF8D1
:100AF00006009047206A401C761C20624E45F4DBBD
:100B00002078C0060AD52046FFF7CBFC06E0D4E9E2
:100B1000012130209047206A401C2062381EA7F136
:100B20000107F4DC07E0D4E9012118F8050090473B
:100B3000206A401C2062281EA5F10105F3DC204636
:100B4000FFF7C5FC2078000602D50220BDE8F0873B
:100B50000120FBE770472DE9FF4F0C461E464FF082
:100B6000FF378BB0D2E90001DDF860800A908A4639
:100B7000C1F30A5505B93D46002108464FF0000073
:100B8000BAF1000F00F4400005DA00EB80004FF4EA
:100B9000400101EA50004FEA9059B9F1010F00DD20
:100BA000B9460A9850EA4A000ED044F61050A5F211
:100BB000FF3545432F14B8F1000F1ED07542291E92
:100BC0001EDDC9F100021CE0B8F1010F4FF000007A
:100BD00001D0302103E0F24305E02154401CB04233
:100BE000FBDB30460022002121540B99C1F808801C
:100BF000C1E900200FB0BDE8F08FBD1B6D1CDEE722
:100C00004A4600DA694206A800F0EEFB06AB93E81C
:100C1000070003AB83E8070050460A9900F09DFCEB
:100C20008DE80700A0F500501F3800900398002DB4
:100C300009DD42F21F014A46084403A903906846B1
:100C400000F0FCFE08E0A0F500504A461F3803A95A
:100C50000390684600F006FF8DE807000004000CD2
:100C600003D04FF0FF30410800E01046B8F1000F0C
:100C700003D00022009215461EE0751E05D4FFF732
:100C8000CBFE303262556D1EF9D5B34601220843C2
:100C900002D000227F1C04E02078302801D10022FD
:100CA0007F1E002A099786D01DE0112D07DAFFF775
:100CB000B3FE303262556D1C50EA0102F5D1084393
:100CC00002D00098C8B10EE00021681E05E0235C48
:100CD000625C63542254401E491C8142F7DBAB46E0
:100CE000A81B401E0990002004F80B000B98099ADD
:100CF000C0F80880C0E9002B7CE711264FF00008FF
:100D000059E72DE9F04F88460446D21D22F007012D
:100D100091B0D1E90001CDE90A0103F0B0F9024632
:100D20000B98C00F01D02D2007E02068810701D566
:100D30002B2002E0202101EAC000032A099001D003
:100D4000072A05DB03464146204600F00DFB09E17A
:100D50002078800601D5E06900E00620B8F1650F33
:100D6000814606D0B8F1660F18D0B8F1670F70D180
:100D700031E00020B9F1110F009001DB112301E0F7
:100D800009F101030AAA01A90CA8FFF7E4FEDDE9B5
:100D90000C70002609F10105834647E001204B460F
:100DA00000904FF000470AAA01A90CA8FFF7D3FE54
:100DB000DDE90DB00C995D46002610B909F101007E
:100DC0000D18B9EB050003D4C0F1FF3609F1010598
:100DD000A5EB09002BE0B9F1010F01DA4FF0010991
:100DE0000020B9F1110F0090484601DD112300E009
:100DF00003460AAA01A90CA8FFF7ADFEDDE90C70B5
:100E00004D4600268346207800070AD4AB4500DA19
:100E10005D4601A8012D04DD411911F8011C30299E
:100E200007D04F4502DA17F1040F04DA0120824699
:100E30000FE06D1EEEE7002F02DCED1B3E4403E0E9
:100E4000781CA84200DD7D1CB81B00F1010A4FF0A0
:100E500000472078000703D4AA4501DB4FF0FF3A92
:100E60000021B7F1004F0DF143088DF8431022D057
:100E700002202B23002F01DA7F422D234FF00A0C92
:100E8000011EA0F1010000DC47B197FBFCF10CFB57
:100E900011720F46303208F8012DF1E7A8F1010078
:100EA00003702188090501D5452100E06521A0F1E5
:100EB000010800F8011C09980FA9A1EB0807FF1D04
:100EC00000B10120411901EBEA70A1693844081A08
:100ED000401EA0612078C00602D42046FFF7E1FA48
:100EE000099828B1D4E901219047206A401C20626A
:100EF0002078C00622D52046FFF7D3FA1EE0002E48
:100F000004DBB34502DD01A8805D00E03020D4E9B8
:100F100001219047206A401C2062761CAAF1010042
:100F20005FEA000A0AD100F01BFAC0680168405C61
:100F3000D4E901219047206A401C2062281EA5F1B7
:100F40000105DCDC07E0D4E9012118F8010B90472A
:100F5000206A401C2062381EA7F10107F3DC2046FE
:100F6000FFF7B5FA022011B045E600002DE9F04F79
:100F700004460D46D21D22F0070089B0D0E9009248
:100F800048461746394603F07AF80246F80F01D072
:100F90002D2307E02068810701D52B2302E02021C3
:100FA00001EAC0038DF820300BB1012000E00020E1
:100FB000032A824601D0072A04DB2946204600F096
:100FC000D3F93BE12078800601D40D2500E0E569E6
:100FD000C7F30A560D2D49DA00214FEA175B084680
:100FE0004FF00000002F00F4400007DA00EB800013
:100FF00000EBD0714FF4400000EA61008115012937
:1010000001DD4FF0FF3100224FEA850CBCF1180FD3
:1010100006D31346ACF118004FF08052C24003E0F3
:101020004FF4801323FA0CF30CF10C0CBCF1200FDD
:1010300004D3ACF1200C09FA0CF001E007FA0CF033
:1010400000294FF0004801DD18B90FE00ED14045EE
:101050000CD319EB02095F4121B9404502D19F43EE
:1010600029EA0209BBEB175F00D0761C2088000537
:1010700002D57A48784402E078487844193808AABA
:10108000302302F80A30037C0AF10101002E0AF134
:10109000020A53546A4602DC4FF0300101E04FF07F
:1010A00031014FF001088DF8001002D0A6F2FF3692
:1010B00003E059EA470100D0694E002D02DC217897
:1010C000090704D54FF002082E218DF80110C446FF
:1010D00000210BE0C7F303433F01C35C491C6D1EB5
:1010E00002F80830052908F1010801DA002DF1DCC9
:1010F00000210CE000EB1973491C1B786D1E0829B8
:1011000002F808304FEA091908F1010801DA002D48
:10111000F0DC2178890602D514E0A8F10108E04549
:1011200005DD02EB080111F8011C3029F5D0B8F1FA
:10113000000F07DD02EB080111F8011C2E2901D177
:10114000A8F10108002D05DD3E2102F808106D1EF2
:1011500008F10108407C002E02F8080008F101089F
:1011600004DA2D20764202F8080002E02B2002F873
:1011700008000A214FF47A739E4208F101080ADB45
:1011800096FBF3F000F1300703FB106602F80870DD
:1011900008F1010801E0642E0BDB642796FBF7F0F1
:1011A00000F1300307FB106602F8083008F101086F
:1011B00001E00A2E06DB96FBF1F0303002F8080061
:1011C00008F1010896FBF1F001FB1060303002F8E5
:1011D0000800A16908F1010808EB050202EB0A000A
:1011E000081AA0612078C00602D42046FFF759F9FA
:1011F000216A08AE01EB0A00206204E0D4E9012173
:1012000016F8010B9047BAF1010AF7D22078C00610
:1012100002D52046FFF745F96E4609E016F8010BA6
:101220003E280FD0D4E901219047206A401C20625B
:10123000B8F10108F2D22046FFF749F909B00220BF
:10124000BDE8F08F206A2844206203E0D4E9012140
:10125000302090476D1EEBD3F8E70000FB3700000D
:1012600002FCFFFF10B5436913B1AFF3008001E04A
:10127000FFF750F9012010BD127800F124010A7027
:1012800000224A700122EDE711684FF0FF32E9E7D2
:1012900010B5436913B1AFF3008001E0FFF7D8F94F
:1012A000012010BD128800F1240182840022C28432
:1012B0000122EDE711684FF0FF32E9E770B51646FD
:1012C0000C46054600F044F8036893F80101012834
:1012D00006D0FF2C0FD8185D68B101202C7070BDAE
:1012E000D3F807013246214603442846BDE8704042
:1012F00003F2071318474FF0FF3070BD00487047E6
:10130000F80300207546FFF7F9FFAE460500694671
:10131000534620F00700854618B020B5FEF7E8FFD9
:10132000BDE820404FF000064FF000074FF00008E6
:101330004FF0000B21F00701AC46ACE8C009ACE867
:10134000C009ACE8C009ACE8C0098D467047000090
:1013500010B500F005F8001D10BD00BF41340000BD
:1013600000487047180400202DE9F0411F4604464C
:1013700003260168072A01F4006004DB08B116A502
:1013800005E016A503E008B115A500E015A521F0BC
:1013900010002060A069C01EA0610FB1401EA061B6
:1013A0002046FFF77EF84FB1D4E901213846904737
:1013B000206A401C2062C01C206206E0206AFAE716
:1013C000D4E9012115F8010B9047761EF8D220468A
:1013D000FFF77DF8BDE8F0814E414E006E616E0072
:1013E000494E4600696E66002DE9F0478146164673
:1013F0008AB0324878440DC88DE80D002F487844F3
:10140000801C03AC0DC884E80D0041F69B303722E8
:10141000014491FBF2F0A0F1800502FB10141B3C8B
:1014200002D56442012000E00020DFF890A0804651
:101430000027FA44AAF1BA0A0DE0E00709D03246C3
:10144000684607EB47010AEB810100F00BFB8DE8D2
:10145000070064107F1C002CEFD1184F7F44A83F79
:1014600018E0E80714D007EB04100DF1180A90E813
:101470000E008AE80E00C068F04201D19819089069
:10148000324606A903A800F0EDFA03AB83E8070093
:101490006D10641C002DE4D132466946B8F1000F8E
:1014A00003A802D000F0CAFA01E000F0DBFAC9E9B3
:1014B0000001C9F808200AB0BDE8F0870C3500002B
:1014C0000446AFF300802046FEF7FDFE4FF0013CDE
:1014D00050F8042B51F8043B9A4221D1A2EB0C03A3
:1014E000934313EACC1317D150F8042B51F8043B63
:1014F0009A4215D1A2EB0C03934313EACC130BD100
:1015000050F8042B51F8043B9A4209D1A2EB0C038A
:10151000934313EACC13DBD04FF00000704700BFB9
:10152000D01A01BAB1FA81F101F0180122FA01F0E2
:10153000CB40C1F12001DBB2C0B2C01A2CFA01F3DA
:10154000D11A914311EAC311E6D17047014918201D
:10155000ABBEFEE72600020070475FEA400C08BF02
:1015600091F0000F4FEA8C234FEAC12243EA515118
:101570004FEA1C5018BF00F5F0404FEA300018BF8A
:1015800041F000415FEA6C5C00F02980BCF1FF3F54
:1015900008BF40F080407047130C06BF12044FF0A4
:1015A000100C4FF0000C130E04BF12020CF1080CCB
:1015B000130F04BF12010CF1040C930F04BF92002F
:1015C0000CF1020CD30F04BF52000CF1010C1146B8
:1015D0004FF00002A0F11F00A0EB0C00704711F0CB
:1015E000004F08BF704731F000413FF4D5AF0B0CFE
:1015F00006BF09044FF0100C4FF0000C0B0E04BF97
:1016000009020CF1080C0B0F04BF09010CF1040CCA
:101610008B0F04BF89000CF1020CCB0F04BF4900F3
:101620000CF1010CCCF12003A0EB0C0022FA03F327
:1016300002FA0CF241EA030100F10100704720F0C8
:101640007F4C80EA030023F07F47ACEB070303F5F0
:101650007C5300F0004003F1FF032DE980494FEA7D
:10166000154B09B44FEA144325EA0B4E24EA03480C
:101670000FF2042606EB132749083E785FEA320290
:1016800003FB0667C7F5000707FB06F64FEA54376A
:101690004FEAD64606F1020607FB066CCCF1005C69
:1016A0004FEA1C472CEA074C07FB06F40CFB06F537
:1016B00004EB15464FEA961634BF00204FF0004069
:1016C0004FEAD13706FB07FC4FEA1C4C0CFB0BF72B
:1016D000D21B03FB0CF761EB07010CFB0EF7B0EB21
:1016E000074072EB17420CFB08F734BFA2EB07422E
:1016F000B2EB074261EB17414FEA0C444FEA910706
:1017000006FB07FC4FEA1C4C0CFB0BF7B0EBC74089
:1017100072EB573203FB0CF734BFA2EBC742B2EBBC
:10172000C74261EB57310CFB0EF7B0EBC70072EB11
:1017300057720CFB08F734BFA2EBC702B2EBC7022B
:1017400061EB5771039F4FEA816141EA921104EB0B
:10175000CC044FEAD1374FEA826206FB07FC42EA2B
:1017600090124FEA80604FEA1C4C0CFB0BF7D21B27
:1017700003FB0CF761EB07010CFB0EF7B0EB074026
:1017800072EB17420CFB08F734BFA2EB0742B2EB37
:10179000074261EB17414FEA8C554FEA910704EB82
:1017A0009C2406FB07FC4FEA1C4C0CFB0BF7B0EB30
:1017B000C74072EB573203FB0CF734BFA2EBC742B2
:1017C000B2EBC74261EB57310CFB0EF7B0EBC70031
:1017D00072EB57720CFB08F734BFA2EBC702B2EBF7
:1017E000C70261EB577115EB4C254FEA816141EA65
:1017F00092114FEA82624FEAD13742EA901206FB19
:1018000007FC44F100044FEA80604FEA1C4C0CFBDB
:101810000BF7D21B03FB0CF761EB07010CFB0EF778
:10182000B0EB074072EB17420CFB08F734BFA2EB9A
:101830000742B2EB074261EB174115EB1C154FEA6B
:10184000813141EA92414FEA823242EA90424FEAC4
:1018500080304FEA0C7644F1000448EA03434EEA34
:101860000B484FF0000EB2EB080C71EB030724BFDE
:10187000624639464EEB0E0E4FF0000B00185241F7
:1018800049414BEB0B0BB2EB080C71EB03077BF1FF
:10189000000B24BF624639464EEB0E0E4FF0000B94
:1018A0000018524149414BEB0B0BB2EB080C71EBAA
:1018B00003077BF1000B24BF624639464EEB0E0E48
:1018C00051EA020718BF46F0010616EB0E7655F1F5
:1018D000000254F1000103D5BDE88901BDE800888C
:1018E000BDE88901B619BDE80048524141EB01014C
:1018F000A3F10103704780807F7E7D7C7B7A7978BD
:10190000777676757473727171706F6E6E6D6C6CC4
:101910006B6A6A6968686766666564646363626166
:101920006160605F5F5E5E5D5D5C5C5B5B5A5A59E7
:101930005958585757565655555554545353525253
:101940005251515050504F4F4F4E4E4D4D4D4C4CAB
:101950004C4B4B4B4A4A4A494949484848474747F4
:101960004746464645454544444444434343434231
:10197000424242414141002B26D4770021D01CB580
:101980004FEA370703B44FF010004FF010014FF04B
:1019900000000FBC0BF1010BBDE81040BBF1010FC3
:1019A00008BF5FEA170722BF12F1010211F101011E
:1019B0004FF0004143F1000300F0004043EA000013
:1019C0007047F9D35708DAE746EA064613F1400FA5
:1019D0004FEA16461FDD13F1200FDFBF16430A46FC
:1019E000002120335B42C8D0C3F1200746EA0646F7
:1019F00002FA07F74FEA164646EA0706C3F1200740
:101A000022FA03F201FA07F721FA03F14FF000037B
:101A100042EA0702B1E746EA020646EA06464FEA0C
:101A2000164646EA0106BCBF46EA0646360C4FF0AB
:101A300000034FF000024FF000019EE72DE9C0487F
:101A4000934630B491E8380007C831EA400C48BFEB
:101A500034EA430C03D5FFF7F2FDFFF78CFFF0BC2F
:101A6000BDE800882DE9C048934630B491E83800BD
:101A700007C810F0804F08BF13F0804F03D100F06B
:101A800005F8FFF778FFF0BCBDE8008820F07F473D
:101A900080EA030023F07F4C07EB0C03A3F57C5393
:101AA00000F00040A3F1FE0392F0000F00F0B380BD
:101AB00095F0000F00F077802DE901494FEA1140C1
:101AC0004FEA144621EA004800FB06FC24EA0647D8
:101AD00008FB06F607FB08F800FB07F718EB0648BB
:101AE0004CEB164C4FEA124B18EB07484FEA1546E1
:101AF0004CEB174022EA0B4E0BFB06FC25EA06478F
:101B00000EFB06F607FB0EFE0BFB07F71EEB064E61
:101B10004CEB164C4FF000061EEB074E4CEB174BF0
:101B200018EB0B0840F1000018EB0E0B58EB000807
:101B300040F100008F1A4FF000013CBFC943661B03
:101B400014BFB5EB040C00213CBFC943F61B4FEAA0
:101B500017444EEA8E0E27EA04454FEA1C4704FB61
:101B600007622CEA074C05FB07F70CFB05F604FBA4
:101B70000CFC16EB074642EB174216EB0C4642EB09
:101B80001C421BEB060658EB0202414146EA9E0648
:101B900001D5BDE80189B619524141EB0101A3F11C
:101BA0000103BDE801894FEA14454FEA114724EAD1
:101BB000054621EA074C05FB07F406FB07F70CFB7B
:101BC00006F105FB0CFC11EB074144EB17444FEA0F
:101BD000124711EB0C4144EB1C4422EA074C05FB75
:101BE00007F206FB07F70CFB06F605FB0CFC16EBF1
:101BF000074642EB174216EB0C4642EB1C456A18AF
:101C000054F1000148BF7047B619524141EB010140
:101C1000A3F10103704795F0000F37D04FEA11424E
:101C20004FEA144721EA024624EA074C02FB07F177
:101C300006FB07F70CFB06F402FB0CFC14EB074455
:101C400041EB17414FEA154714EB0C4441EB1C41A3
:101C500025EA074C02FB07F506FB07F70CFB06F627
:101C600002FB0CFC16EB074645EB174516EB0C4642
:101C700045EB1C42121951F1000148BF7047B619DB
:101C8000524141EB0101A3F1010370474FEA1445B2
:101C90004FEA114724EA054621EA074C05FB07F104
:101CA00006FB07F70CFB06F24FF0000605FB0CFCE9
:101CB00012EB074241EB174112EB0C4251EB1C4176
:101CC00048BF7047921841EB0101A3F1010370472F
:101CD0002DE9F04105460C46FE2000F037F90A20B8
:101CE00002F08DFB164F04264FF008080022102149
:101CF000384600F0D0FD502000F002F9032000F03B
:101D0000FFF8304600F0FCF8404600F0F9F82846AD
:101D100000F0F6F8204600F0F3F8012210213846D2
:101D200000F0B9FDF02000F011F9322002F067FB5D
:101D30000821384600F0AAFD0028F9D1BDE8F0815D
:101D4000000C024030B587B014216846FEF774FBE2
:101D500023480024016841F0080101600068214D1A
:101D600000F008000590332000900120CDE9010427
:101D700069462846039400F091FC0420CDE9000454
:101D800069462846029400F089FC0820CDE9000449
:101D9000022002906946284600F080FC00222021A3
:101DA000284600F078FD4FF47A7002F028FB0122FB
:101DB0002021284600F06FFD0B4802F020FB012295
:101DC0001021284600F067FD00220121284600F07E
:101DD00062FD01220221284600F05DFD07B030BD02
:101DE00030380240000C0240A086010070B5082186
:101DF00041EA0010C1B2012000F0BCF8FC2000F064
:101E0000A5F8052002F0FBFA002000F09FF8154C21
:101E1000154D01E0641E21D00821284600F036FD52
:101E20000028F7D100221021284600F034FD0120BF
:101E300000F066F8052002F0E2FA00F03BF8040436
:101E400000F038F844EA002400F034F8044301229A
:101E50001021284600F01FFD204670BD4FF0FF30D6
:101E600070BD000020A10700000C024010B500204A
:101E700000F002F8000910BD70B50D4D04460022B7
:101E80001021284600F007FD44F0100000F038F85B
:101E9000002000F035F8052002F0B1FA00F00AF851
:101EA000044601221021284600F0F5FC204670BDB2
:101EB000000C024070B50024104E25466006040E4A
:101EC00001221146304600F0E6FC012002F097FAAC
:101ED0000421304600F0DAFC012801D144F001046D
:101EE00000220121304600F0D6FC012002F087FAE2
:101EF0006D1CEDB2082DE1D3204670BD000C0240F0
:101F000070B5114E05460024280601D5012200E0D7
:101F100000220221304600F0BEFC0122114630466C
:101F200000F0B9FC012002F06AFA6806050E0022F2
:101F30000121304600F0AFFC012002F060FA641C81
:101F4000E4B2082CE0D370BD000C024070B5084C20
:101F5000054600221021204600F09DFC2846FFF790
:101F6000CFFF2046BDE870400122102100F093BC55
:101F7000000C024070B50C4D0E46044600221021A4
:101F8000284600F088FC44F05000FFF7B9FF00201D
:101F9000FFF7B6FF3046FFF7B3FF2846BDE87040B5
:101FA0000122102100F077BC000C0240FEE7000087
:101FB00070B5254886B00024016841F00201016037
:101FC000016801F002010591016841F00101016021
:101FD0000068142100F0010005906846FEF72CFA15
:101FE00040F6044000900125CDE90154174E6946A2
:101FF0003046039400F052FBA0200090CDE901543C
:102000000394134C6946204600F048FB012204214A
:10201000304600F040FC01229102304600F03BFCCB
:102020000022E114304600F036FC01222021204637
:1020300000F031FC00228021204600F02CFC0A2018
:1020400000F01AFB06B070BD3038024000040240B8
:102050000000024010B5FFF7ABFF002000F05AF877
:10206000142000F009FB012000F054F80A2000F0D1
:1020700003FB022000F04EF8BDE810400A2000F0FB
:10208000FBBA00002DE9F0410724114E0746012557
:1020900005FA04F0384201D0012200E0002280213C
:1020A000304600F0F8FB012002F099F900222021CF
:1020B000304600F0F0FB012002F091F901222021CE
:1020C000304600F0E8FB641EE2D5BDE8F081000078
:1020D00000000240B5EEC00AF1EE10FA01D29FED09
:1020E0000A0ADFED0A0A0A4B20EE200A10EE102A37
:1020F000FCEEC00A9A4210EE901A89B201DD4FF64A
:10210000FF7100F055B800000000000000CC4C4604
:1021100000FF7F4710B5254CA0B3012814D002283A
:1021200043D100220421204600F0B5FB012002F03B
:1021300056F90820FFF7A6FF0020FFF7A3FF0020B5
:10214000FFF7A0FF012011E000220421204600F04B
:10215000A2FB012002F043F90420FFF793FF0020C7
:10216000FFF790FF0020FFF78DFFFF20FFF78AFFAA
:10217000012002F034F920460122BDE8104004217C
:1021800000F089BB00220421204600F084FB0120DE
:1021900002F025F90720FFF775FF0020FFF772FF17
:1021A0000020FFF76FFF0020E0E710BD00040240B1
:1021B0002DE9F04100F00F0040F0300041EA00400E
:1021C0000101DFF84C800E0EC1F30745C1F307246F
:1021D000CFB200220421404600F05DFB012002F056
:1021E000FEF83046FFF74EFF2846FFF74BFF20462C
:1021F000FFF748FF3846FFF745FF012002F0EFF8F0
:102200004046BDE8F0410122042100F044BB00003B
:1022100000040240014800F0BDB80000E0020020C8
:10222000014800F0B7B800004003002001681823FF
:10223000CAB2103AB2FBF3F2054B6FF30901032A5D
:102240009B5CC36500D9091D816508467047000085
:10225000DA47000810B5014600208B698A6A4FF002
:10226000C07453B1B3F5005F15D072B1012A0CD020
:10227000022A0AD0032A09D104E01AB1012A06D0A1
:10228000022A03D1C96AC90100D5012010BDC96A5B
:10229000A142FAD010BD002AF7D0012AF2D0022ABA
:1022A000F3D0032AF3D010BD30B50468256825F4B7
:1022B00080252560046863608368402B036803D031
:1022C00099600068C26030BD9A600068C16030BD2E
:1022D000704772B6FEE72DE9F0410446876D00F0C5
:1022E000DFFA064694F835000025022806D0802043
:1022F000606584F834500120BDE8F08120680168F1
:1023000021F0160101602068416921F080014161DE
:10231000206C08B9A06C20B12068016821F0080188
:1023200001602068016821F0010101600CE000F00B
:10233000B7FA801B052807D920206065032084F8A0
:10234000350084F83450D7E720680068C007EED124
:1023500094F85C103F208840B860012084F8350074
:1023600084F834500020C7E790F83510022903D0D4
:102370008021416501207047052180F835100068F3
:10238000016821F0010101600020704790F83500DC
:10239000704700002DE9F84304464FF00009CDF8DE
:1023A000009063484FF41651A56D0068B0FBF1F73B
:1023B0002E6894F85C10082000FA01F131420FD029
:1023C00021680A6852070BD50A6822F004020A60E5
:1023D00094F85C108840A860606D40F00100606572
:1023E00094F85C104FF0010808FA01F0304208D070
:1023F00021684969090604D5A860606D40F00200B3
:10240000606594F85C1004208840304208D0216850
:102410000968890704D5A860606D40F00400606514
:1024200094F85C1010208840304218D02168096868
:10243000090714D5A86020680168490304D500681D
:10244000000308D5A16C07E00168C90503D4016841
:1024500021F008010160216C09B12046884794F8F9
:102460005C1020208840304231D021680968C906BC
:102470002DD5A86094F8350005282068016806D09D
:10248000490347D5006800031DD4616C1CE021F0AE
:10249000160101602068416921F080014161206CD2
:1024A00008B9A06C20B12068016821F00801016022
:1024B00094F85C103F208840A86084F8358084F848
:1024C0003490216D1FE0E16B09B120468847606DB3
:1024D00000282BD0606DC00714D0052084F835008B
:1024E0002068016821F0010101600098401C009003
:1024F000B84203D820680068C007F6D184F8358058
:1025000084F83490E16C002910D001B02046BDE879
:10251000F04308470168C905D5D4016821F01001CE
:10252000016084F8358084F83490CCE7BDE8F88306
:10253000240000202DE9F041044600F0B1F90646E0
:102540005CB1022084F83500002584F834502068FE
:10255000016821F0010101600DE00120BDE8F0817A
:1025600000F09EF9801B052805D920206065032016
:1025700084F83500F2E720680068C007F0D12268CF
:10258000116820480140D4E901031843D4E9033617
:102590003343184363691843A3691843E369184335
:1025A000236A18430843616A042903D1D4E90B1351
:1025B00019430843106020684069666A20F00701EB
:1025C00030460E43012704280CD1A06A0643E06A76
:1025D00040B12046FFF73EFE20B14020606584F800
:1025E0003570BAE7206846612046FFF71FFE94F871
:1025F0005C203F2191408160656584F83570002042
:10260000ACE700003F8010F02DE9F0410446866DF4
:1026100090F83400002501280DD0012084F8340002
:1026200094F835700020012F07D084F8340002257B
:102630002846BDE8F0810220FBE7022784F83570C8
:1026400060652046FFF730FE94F85C103F2088401C
:10265000B0602068016841F016010160206C20B173
:102660002068016841F0080101602068016841F0BC
:1026700001010160DCE7000070B5044600F010F9CC
:102680000546601C02D004480078044400F008F9B4
:10269000401BA042FAD370BD180000202DE9F84F6E
:1026A000DFF8BCA10022012503264FF00F090AF133
:1026B000040BAAF1040E00BF0B6805FA02F42340D4
:1026C000A34270D10F7907F00307012F01D0022F29
:1026D00016D187684FEA420806FA08FC27EA0C0779
:1026E000D1F80CC00CFA08FC4CEA070CC0F808C082
:1026F0004768A7430C79C4F3001494403C434460FA
:102700000C79E443A4070AD0C4684FEA420C06FAE5
:102710000CF7BC438F6807FA0CF72743C7600C79A6
:1027200004F00304022C12D1D40800EB840CDCF872
:1027300020405707FF0E09FA07F824EA0804D1F8E9
:10274000108008FA07F848EA0408CCF820800468EA
:102750004FEA420C06FA0CF7BC430F7907F0030767
:1027600007FA0CF7274307604C6814F4403F70D019
:102770003C4C276847F480472760246822F0030711
:1027800004F480440094384C07EB040CDCF808484F
:1027900097074FEA177809FA08F7BC43334FB84256
:1027A00002D1002724E054E0314FB84201D1012783
:1027B0001EE0304FB84201D1022719E02E4FB84237
:1027C00001D1032714E02D4FB84201D104270FE0B7
:1027D0002B4FB84201D105270AE02A4FB84201D158
:1027E000062705E0284FB84201D1072700E0082757
:1027F00007FA08F72743CCF80878DAF8004057467C
:10280000D1F804C09C435FEACC2C00D51C433C604B
:10281000DBF800405F46D1F804C09C435FEA8C2C93
:1028200000D51C433C60DEF800407746D1F804C078
:102830009C435FEA8C3C00D51C433C60084F083F3A
:102840003C68D1F804C09C435FEACC3C00D51C43F3
:102850003C60521C102AFFF42FAFBDE8F88F000037
:10286000083C014044380240003001400000024072
:102870000004024000080240000C02400010024028
:102880000014024000180240001C02400069084089
:1028900000D0012070470AB1816170470904FBE74D
:1028A00001488068704700001800002002488168D5
:1028B0000278114481607047180000200B4810B561
:1028C000016841F400710160016841F480610160B8
:1028D000016841F480710160032000F06FF80F205F
:1028E00000F006F800F024F8002010BD003C024083
:1028F00070B50D4D04464FF47A712878B1FBF0F0B5
:102900000A490968B1FBF0F000F09EFB48B9102CB1
:1029100007D200222146501E00F030F800206C60E3
:1029200070BD012070BD00001800002024000020B0
:102930000A4808B5016841F480410160006800F46C
:10294000804000900548001F016841F080510160FF
:10295000006800F08050009008BD0000443802403C
:10296000002809DB00F01F0201219140400980008E
:1029700000F1E020C0F8001170470000F0B40E4BE9
:102980001B680C46C3F30223C3F10705042D00D9CD
:102990000425191D072901D2002300E0DB1E0126B2
:1029A00006FA05F1491E214099409E40761E1640C8
:1029B0003143F0BC01F08EBB0CED00E0064900F0A5
:1029C000070208684FF6FF03184040EA0220034A56
:1029D00010430860704700000CED00E00000FA05AD
:1029E0002DE9F0470E46050065D0DFF81481D8F8D0
:1029F0000000F7B200F00700B04207D288F800707C
:102A0000D8F8000000F00700B04254D128683D4CCF
:102A1000810712D5400703D5206840F4E0502060BC
:102A20002878000703D5206840F4604020602068C3
:102A3000A96820F0F000084320602878C0072DD056
:102A4000304968680839012812D0022813D00328B9
:102A500011D00968890700292DDA216821F00301C6
:102A600001432160FFF71CFF814641F2883A0EE0E6
:102A700009688903EFE709688901ECE7FFF710FFB0
:102A8000A0EB0901514502D90320BDE8F087206879
:102A9000696800F00C00B0EB810FEFD1D8F800109E
:102AA000404601F00701B14207D90770006800F005
:102AB0000700B04201D00120E7E72878400705D59C
:102AC0002068E96820F4E050084320602878000777
:102AD00006D52068296920F4604040EAC1002060E2
:102AE00000F038F82168084AC1F30311515CC8406E
:102AF0000649086006480068FFF7FAFE0020C4E7B0
:102B0000003C024008380240E24700082400002050
:102B10001C0000200448054900680968044AC1F304
:102B20008221515CC84070472400002008380240D0
:102B3000F24700080448054900680968044AC1F3DF
:102B40004231515CC84070472400002008380240E0
:102B5000F2470008154810B5006810F00C02144840
:102B600013D01449042A0FD0082A0ED10F4C241F69
:102B70002268236802F03F025B0207D52068C0F399
:102B80008810A0FB010106E0084610BD2168C1F3D2
:102B90008811A1FB00010023FDF7BCFB2168C1F3F4
:102BA0000141491C4900B0FBF1F010BD083802405A
:102BB0000024F40040787D012DE9F84F04006ED028
:102BC0002078DFF84C93C007A9F104054AD009F139
:102BD00004000168C1F38101012908D00068C0F335
:102BE000810002280AD1D9F80000400206D52868E1
:102BF000800337D560680028E1D033E06068B0F525
:102C0000803F10D0B0F5A02F286810D020F480307D
:102C10002860286820F4802028606068A8B1FFF749
:102C20003FFE06460DE0286840F48030F4E740F4AB
:102C300080202860F7E700BFFFF732FE801B642882
:102C400073D828688003F7D50CE0FFF729FE064605
:102C500005E000BFFFF724FE801B6428F0D8286839
:102C60008003F7D42078DFF8AC8280074FF0000AA9
:102C70003ED5A748001D016811F00C0F08D0006870
:102C8000C0F3810002280BD1D9F80000400207D41C
:102C90002868800716D5E068012800D112E033E1EA
:102CA000E068B8B10120C8F80000FFF7F9FD06465A
:102CB00005E000BFFFF7F4FD801B0228C0D828689C
:102CC0008007F7D52868216920F0F80040EAC100A4
:102CD00028600DE0C8F800A0FFF7E2FD064604E01A
:102CE000FFF7DEFD801B02281FD828688007F7D475
:102CF0002078000722D5864F87486169703771B107
:102D000001210160FFF7CCFD064604E0FFF7C8FD96
:102D1000801B022809D838688007F7D50EE0C0F874
:102D200000A0FFF7BDFD064605E082E0FFF7B8FD15
:102D3000801B02287DD838688007F7D420784007A8
:102D400068D5DFF8CCB100270BF13C0BDBF80000B5
:102D5000C0000BD4DBF8001041F08051CBF800101C
:102D6000DBF80000012700F0805000906B4E3068C7
:102D7000C00510D4306840F480703060FFF790FDDB
:102D8000009005E0FFF78CFD0099401A022850D80A
:102D90003068C005F6D55E4EA0686C3601280FD0AD
:102DA0000528306810D020F001003060306820F035
:102DB00004003060A068B8B1FFF772FD00900FE02A
:102DC000306840F00100F4E740F004003060F7E7BD
:102DD000FFF766FD0099411A41F28830814266D8BA
:102DE00030688007F4D50EE0FFF75AFD009007E049
:102DF000FFF756FD0099411A41F28830814256D8BA
:102E000030688007F4D42FB1DBF8001021F0805136
:102E1000CBF80010A069C8B33D49091D0968C1F38A
:102E2000810102294AD00228504607D0C8F8600024
:102E300000E03CE0FFF734FD04463BE04746C8F8BD
:102E40006000FFF72DFD064605E000BFFFF728FDF7
:102E5000801B02282BD828688001F7D4D4E9070109
:102E60000843A16A2E4A490802EB0141626A41EA1D
:102E70008211084394F82C1040EA0161C9F800104F
:102E800001203866FFF70CFD044606E03EE000BF77
:102E9000FFF706FD001B022809D828688001F7D536
:102EA00034E000BFFFF7FCFC001B022802D903201E
:102EB000BDE8F88F28688001F4D427E00128F7D016
:102EC000D9F80000E26900F4800191421CD1226A25
:102ED00000F03F01914217D147F6C071626A01408C
:102EE000B1EB821F10D1A26A4FF0FF3300F44031E2
:102EF00003EB5202B1EB024F06D194F82C1000F014
:102F00007060B0EB016F01D00120D1E70020CFE766
:102F10000438024000004742800E474200700040E3
:102F20000000FFFF70B5040009D0606A002540B1C1
:102F300025616561A56294F8510040B10CE0012063
:102F400070BD6068B0F5827FF4D0E561F2E784F887
:102F50005050204600F044F8022084F851002068C8
:102F6000016821F040010160A088218900F482708D
:102F700001F404410843A18901F400610843217C64
:102F800001F002010843217D01F001010843218B7A
:102F900001F400710843217F01F03801084394F8DF
:102FA000201001F080010843218D01F400510843F5
:102FB00021680860A069042101EA104094F82410F7
:102FC00001F010010843216848602068C16921F4BC
:102FD0000061C1616565012084F85100002070BD69
:102FE00010B586B0044614216846FDF725FA13494A
:102FF0002068884220D112480021026842F48052A1
:103000000260006800F4805005900D481438026892
:1030100042F001020260006800F001000590E0202B
:1030200000900220CDE901010320039005200490C7
:1030300069460448FFF732FB06B010BD003001407E
:10304000443802400000024010B5401EB0F1807FBD
:1030500001D3012010BD4FF0E02460610F21601703
:1030600001F038F80020A06107202061002010BD89
:1030700070477047F8B5016804460868CA684B692C
:1030800010F00F0F4FF000055AD003F0010602F4C4
:103090009077374365D0C10705D0D10503D5616C62
:1030A00041F001016164410705D5D90703D0616C86
:1030B00041F002016164810705D5D90703D0616C35
:1030C00041F004016164010707D502F0200131439A
:1030D00003D0616C41F008016164616C00293BD050
:1030E000800604D5900602D5204600F063FE2068D5
:1030F0004069616CC0F3801001F008010143204673
:103100002BD000F0E1FD20684069400621D5206801
:10311000143050E8001F21F0400140E80012002A5E
:10312000F5D1E06BA8B172490165E06BFFF71CF9BE
:10313000002811D0E06B016D01B0BDE8F0400847F8
:1031400083060ED593060CD52046BDE8F84000F066
:1031500031BE2046FFF78DFFF8BDFFF78AFF65649B
:10316000F8BD266B2023012E7ED1C6067CD5D6065F
:103170007AD508684868009048694FF00206400612
:103180004DD5E26B106840684FF480770004000C66
:103190003AD0A18D814237D9E085D069B8422DD08F
:1031A00020680C3050E8001F21F4807140E80012C4
:1031B000002AF5D12068143050E8001F21F00101E9
:1031C00040E80012002AF5D12068143050E8001FB2
:1031D00021F0400140E80012002AF5D184F8423085
:1031E000256320680C3050E8001F21F0100140E8F2
:1031F0000012002AF5D1E06BFFF76DF86663A08D31
:10320000E18D401A81B206E0A18D8142A8D1D0693A
:10321000B842A5D166632046FFF72AFFF8BDA08D0E
:10322000E18D401A81B2E08D0028F7D00029F5D059
:1032300020680C3050E8002F22F4907240E80027FC
:10324000002FF5D12068143050E8002F22F0010241
:1032500040E80027002FF5D184F84230256320682C
:103260000C3050E8002F00E006E022F0100240E8A9
:103270000023002BF3D1CDE705062BD5150629D564
:1032800094F841002128C9D1A068B0F5805F01D130
:103290002069B0B1206A411C216221680078486031
:1032A000E08C401E0004000CE084B7D12068C168A7
:1032B00021F08001C1602068C16841F04001C16017
:1032C000F8BD206A0088C0F308004860206A801CAE
:1032D0002062E5E74006F3D55006F1D5CA682046DE
:1032E00022F04002CA6084F8413000F04BF9F8BD8A
:1032F000593B000870B5040004D094F84100002543
:1033000010B106E0012070BD84F84050204600F066
:1033100023F8242084F841002068C16821F400517A
:10332000C160204600F0A8FD2068016921F49041A9
:1033300001612068416921F02A0141612068C1686A
:1033400041F40051C1606564202084F8410084F894
:1033500042006563002070BD2DE9F04186B006464D
:1033600014216846FDF768F83049306888425AD120
:103370002F480024016841F010010160006800F04E
:10338000100005902A481438016841F001010160DD
:103390000068694600F0010005904FF4C06000909D
:1033A0000220CDE901040320039007200490214866
:1033B000FFF774F9214D20484FF000672860C5E9F8
:1033C00001744FF48068C5E903486C61B812AC61C0
:1033D000C5E9074028466C62FFF7ACF808B1FEF774
:1033E00078FFF563AE63154D134860357830E5E836
:1033F00002074020A5E81101104845F81449603043
:10340000AC61EC612C626C62FFF794F808B1FEF7D6
:1034100060FFB563002211462520AE63FFF7AEFAC8
:103420002520FFF79DFA06B0BDE8F08100100140AD
:10343000443802400000024040640240E0020020A4
:1034400090F84230202B01D00220704721B11AB1F0
:103450000023036300F07EBD012070477047704772
:103460002DE9F843044690F84100984616460D466B
:10347000202802D00220BDE8F88385B17EB100206B
:103480006064212084F84100FFF70AFAA68481468F
:10349000E684A0682027B0F5805F02D003E0012019
:1034A000E9E7206910B12E4600250EE000260CE069
:1034B0008021204600F09EFDA8B9C6B116F8010B88
:1034C00021684860E08C401EE084E08C4B464FF061
:1034D0000002CDF800800028EAD14FF040012046DC
:1034E00000F088FD40B184F841700320C3E735F84F
:1034F000020BC0F30800E3E784F841700020BAE74C
:1035000070B5044690F84100202801D0022070BD1B
:1035100001B3FAB12162A284E28400206064212315
:1035200084F84130A56B144BEB63A56B134B2B64F4
:10353000A56B134BEB64A36B186520681346A56B52
:10354000021D2846FFF760F830B11020606420208B
:1035500084F84100012070BD21686FF040000860D0
:103560002068143050E8001F41F0800140E800124C
:10357000002AF5D1002070BD553C0008973C00089A
:10358000673B000870477047FEE700000D4808B52C
:10359000016841F4800101600068002200F48000AD
:1035A000009011463A20FFF7E9F93A20FFF7D8F9E1
:1035B000002211464620FFF7E1F9BDE80840462009
:1035C000FFF7CEB9303802402DE9F04786B014211C
:1035D0006846FCF731FF3D480024016841F00401D2
:1035E0000160016801F004010591016841F080016A
:1035F0000160016801F080010591016841F001015D
:103600000160016801F001010591016841F00201CA
:103610000160016801F002010591016841F00801B3
:1036200001600068DFF8A88000F008000590002223
:1036300020214046FFF72FF9DFF8989040F6044725
:10364000002239464846FFF726F9DFF88CA0002211
:1036500033215046FFF71FF9E0200226CDE900068E
:103660000320CDE902400520049069461B48FFF77E
:1036700015F8202000900125CDE901546946404607
:103680000394FFF70BF80097CDE9015469464846CB
:103690000394FFF703F833200090CDE90154694605
:1036A00050460394FEF7FAFF0420CDE90004694672
:1036B00050460294FEF7F2FF08208DE8510069465B
:1036C0005046FEF7EBFF06B0BDE8F0873038024009
:1036D0000008024000040240000C024000000240CA
:1036E000104810B50E4901604FF48271416000210D
:1036F00002228160C0E903121202C0E905122822E9
:10370000C0E90721416281620A21C162FFF70AFC18
:10371000002803D0BDE81040FEF7DBBD10BD00005F
:1037200000300140A00300200C4810B50A49016098
:103730004FF4E1314160002181600C22C160C0E999
:1037400004128161C161FFF7D5FD002803D0BDE8F7
:103750001040FEF7BEBD10BD0010014098020020D1
:10376000FEE7FEE79FED0C2A80EC050A80ED052AB6
:1037700080ED062A80ED072A80ED0B2A80ED082ACD
:10378000B1EE042A80ED092AB3EE042A80ED0A2A5C
:10379000303080EC040A704700000000704710B51C
:1037A00000230122891E04E0845C521C2344DBB206
:1037B00092B28A42F8DBC3F1FF0010BD08484FF413
:1037C000FA714FF47A728161C1610021C0E9081277
:1037D0000A23C0E90B23C0E90E1201647047000000
:1037E0001402002010B504460078682867D194F8C8
:1037F0002300162863D124212046FFF7D0FF94F838
:10380000221081425BD1D4F80A00617B00BA20F01B
:10381000FF00627908432A491C2A2ED017DC4FF09A
:103820000103062A23D008DC012A1AD0022A1CD060
:10383000032A44D1002008703BE0112A19D0132A32
:1038400019D0182A3BD1BDE8104000F03DB8A2F1D4
:103850001D03082B33D2DFE803F02132322B23255E
:103860002729BDE8104000F06DB80B7021E04B70C7
:103870001FE048601DE048621BE0886154F80E0FAD
:1038800000BAE37820F0FF001843C8616068E3796C
:1038900000BA20F0FF00184308620AE0886308E0DD
:1038A000886206E0C86304E0086402E0C86200E0E1
:1038B0004863BDE810400021104600F0CDB810BDAF
:1038C000140200207047000010B51D4C68202070C5
:1038D000182060714820E0710020207204F1AA00D5
:1038E000017861724178217301690A0E22750A0C10
:1038F00062750A0AA275E175C1680A0E22760A0C81
:1039000062760A0AA276E1764069010E84F83010E8
:10391000010C84F83110010A84F8321084F8330065
:1039200052212046FFF73BFF84F85000162084F810
:1039300051002046BDE81040522100F0B1B900000E
:103940006A01002010B5434C682004F8050B0120E3
:1039500004F8050B4C2004F8030C3E48583041682D
:1039600001EB810149000A0E04F8022C0A0C04F84C
:10397000012C0A0A04F8012B217081680A0E627377
:103980000A0C04F80E2F0A0A6270A17081690A0EEF
:10399000E2730A0C22740A0A6274A174C1690A0EE5
:1039A000E2740A0C22750A0A6275A175016A0A0E90
:1039B000E2750A0C22760A0A6276A176816B0A0EFB
:1039C000E2760A0C22770A0A6277A177C16B0A0EA7
:1039D000E2770A0C84F820200A0A84F8212084F86F
:1039E0002210016C0A0E84F823200A0C84F824208B
:1039F0000A0A84F8252084F82610816A0A0E84F8C1
:103A000027200A0C84F828200A0A84F8292084F840
:103A10002A10C16A0A0E04F82F2F0A0C62700A0AD3
:103A2000A270E170006B64214843010E2171010C0A
:103A30006171010AA171E07156210648FFF7AFFEDE
:103A4000207316206073BDE810405621014800F035
:103A500027B90000BC01002010B50B4C6822227071
:103A600060713820E071217242212046FFF797FEF5
:103A700084F84000162084F841002046BDE810403C
:103A8000422100F00DB9000028010020FEF70EBF12
:103A900030B593B030216846FCF7CEFC14210CA859
:103AA000FCF7CAFC1E480025016841F08051016006
:103AB000006800F0805011901A48016841F480417C
:103AC00001600068022400F4804011900120009001
:103AD000000401908001CDE90640192008904FF4C0
:103AE000A870CDE9090404200B906846FFF764F83C
:103AF00008B172B6FEE70CA90F2081E831004FF43F
:103B0000A0500F904FF48050109005210CA8FEF7A4
:103B100067FF002801D072B6FEE713B030BD000089
:103B200040380240007000400248016841F47001D2
:103B30000160704788ED00E005480068C16841F009
:103B40001001C1604FF4807202490148FFF778BC50
:103B5000980200202800002010B5806B0021C1854C
:103B6000FFF787FA10BD70B5846B2068406994F840
:103B70004110C0F3C0100025212904D118B1E584FB
:103B8000204600F0C8F82068406994F84210C0F35D
:103B90008010222904D118B1E585204600F094F860
:103BA000606C40F0100060642046FFF762FA70BD60
:103BB00010B50146806B096809684FF00002C9051D
:103BC0002ED4C28501680C3151E8003F23F4807384
:103BD00041E80034002CF5D10168143151E8003F70
:103BE00023F0010341E80034002CF5D101681431C1
:103BF00051E8003F23F0400341E80034002CF5D1A8
:103C0000202180F84210016B012909D101680C3193
:103C100051E8003F23F0100341E80034002CF5D1B7
:103C20004263016B012902D0FFF718FC10BD818DA2
:103C3000FFF71EFA10BD10B5806B01214163016BC7
:103C4000012902D0FFF70BFC10BD818D4908FFF759
:103C50000FFA10BD10B50146806B09680968C905E7
:103C600016D40021C1840168143151E8002F22F0DC
:103C7000800241E80023002BF5D101680C3151E8A6
:103C8000002F42F0400241E80023002BF5D110BD87
:103C9000FFF778FC10BD10B5806BFFF774FC10BD0A
:103CA00070B50C4605460648FEF770FB0128FAD1B0
:103CB00022462946BDE870400248FFF721BC0000BB
:103CC000400300209802002001680C3151E8002FC9
:103CD00022F4907241E80023002BF5D101681431E1
:103CE00051E8002F22F0010241E80023002BF5D11A
:103CF000016B012909D101680C3151E8002F22F034
:103D0000100241E80023002BF5D1202180F8421059
:103D100000210163704701680C3151E8002F22F047
:103D2000C00241E80023002BF5D1202180F841108A
:103D300070470000124908B508680268C2F3001213
:103D4000002A1BD0026840680090C86B00680268B7
:103D500022F001020260C86B00684068C0F5807004
:103D600080B2242802D10748FFF73CFDBDE8084097
:103D70004FF4807203490248FFF762BB08BD0000A0
:103D800098020020280000200FB4802100B5A1B0C7
:103D900023AB6846229AFCF735FB002805DD82B28A
:103DA000642369460248FFF75BFB21B05DF814FB12
:103DB0009802002008B590F84210222901D0022074
:103DC00008BD82684FF480539A4201D1016921B144
:103DD000816A9A421BD04AB10AE00268816A52683D
:103DE000C2F308020A80816A891C08E0026972B184
:103DF0000268526802F07F020A70816A491C81627F
:103E0000C18D491E0904090CC18503D01BE002685D
:103E10005268F1E70168CA6822F02002CA600168AE
:103E2000CA6822F48072CA6001684A6922F00102FD
:103E30004A61202180F8421000214163026B012A6F
:103E400003D0FFF70BFB002008BD016301680C31B4
:103E500051E8002F22F0100241E80023002BF5D199
:103E600001680A68D20602D50A6849680091818D06
:103E7000FFF7FEF8E7E7000070B504460068016947
:103E8000E26821F44051114301612169A068E269AF
:103E900008436169114308432168CA6849F20C6309
:103EA0009A430243CA6020684169A26921F44071C3
:103EB0001143416125492068884202D02449884243
:103EC00002D1FEF737FE01E0FEF724FEE26900238F
:103ED000192164253226B2F5004F62681BD0A0FB81
:103EE0000101930F9200FCF715FA0146B0FBF5F0C3
:103EF0006FF01802424301EB820106EB0111B1FBA6
:103F0000F5F101F0F00202EB001001F00F0108449E
:103F10002168886070BDA0FB010192185B41FCF72D
:103F2000F9F9B0FBF5F10B016FF01802514300EB0A
:103F3000810006EBC000B0FBF5F000F0F80103EBE8
:103F4000410100F007000844E2E7000000100140D2
:103F50000014014038B58162044682850020134672
:103F60006064222284F84220E56B1F4AEA63E56B15
:103F70001E4A2A64E56B1E4AEA64E26B10650A4633
:103F80002168E06B091DFEF73FFB30B11020606433
:103F9000202084F84200012038BD20680168406874
:103FA0000090206948B120680C3050E8001F41F4AF
:103FB000807140E80012002AF5D12068143050E8E2
:103FC000001F41F0010140E80012002AF5D12068ED
:103FD000143050E8001F41F0400140E80012002A70
:103FE000F5D1002038BD0000B13B0008373C000887
:103FF000673B00082DE9F843984617460D460446EE
:10400000089E24E0701C22D0FEF74AFCA0EB0800BA
:10401000B0421AD8CEB12068C168490717D5802DA3
:1040200015D0402D13D00168C94309070FD401688A
:104030000025406800902046FFF746FE0820606497
:1040400084F840500120BDE8F8830320FBE7206896
:10405000006835EA000004D00020B842D2D0002029
:10406000F1E70120F9E7000010B5FFF763FEBDE8B6
:1040700010400148FEF7FEBF98020020FEE703B49F
:1040800001984100009850EAC12018BF04204A0D51
:1040900018BF40F0010040F2FF72B2EB515F08BF61
:1040A00040F00200012808BF052002B0704741001F
:1040B000080218BF04200A0E18BF40F001004FF09C
:1040C0007F4232EA010108BF40F00200012808BF28
:1040D000052070470907090E002804DB00F1E020E5
:1040E00080F80014704700F00F0000F1E02080F825
:1040F000141D704700B510EE101A2DED028B81B023
:10410000504A6846B2EB410F2ED94FF0E640B0EB73
:10411000410F94BF00204FF0FF3000900098B0EEA8
:10412000408A00286ADB10F0010F4BD068EE080AC5
:104130009FED451A9FED450A00EE810A9FED441A56
:1041400010F0020F00EE801AB7EE000A00EE810AAE
:1041500002BF01B0BDEC028B00BD00BF01B0B1EEEB
:10416000400ABDEC028B00BD3A4B21F00042934265
:1041700041D911F0004FDFED380A20EE201ADFEDB3
:10418000370A19BF31EE601A71EE200A31EE201A9B
:1041900071EE600ABDEEE01A11EE100A9FED301AC2
:1041A00000F0030000EEC10A9FED2E1A009000EE11
:1041B000C10A9FED2D1A00EEC10A9FED2C1A00EEE8
:1041C000C10AABE728EE080A9FED291ADFED290A9C
:1041D00010F0020F40EE410A9FED271A00EE201A60
:1041E00061EE000AB0EE480A08EE200AB6D101B02E
:1041F000BDEC028B00BD00F04BF88FE718EE100A03
:104200004000B0F17F4F88BF38EE080A0DD218EE9B
:10421000100AFFF74CFF042808BF00F031F8B0EE99
:10422000480A01B0BDEC028B00BD1EBF01B0BDEC61
:10423000028B00BD0120FCF72EF9DFED100A80EEA5
:10424000A00AEEE7B61F927EB93AB2BACA9F2A3DDB
:10425000DDFFFFBE490E494683F9223F0000004BB7
:104260000000C93F00A0FD390020A2331A61342CA0
:10427000336D4C39DA82083CA0AA2ABE0000000047
:104280009FED020A20EE000A7047000000000010B7
:104290002DE9F0014FF07F42B2EB410F9FBF4FF08D
:1042A000FF310160BDE8F00170474FF0004242EA83
:1042B0000123C1F3C752783A541102F01F023E4D58
:1042C000C2F1200C7D4455F8246005EB840596402E
:1042D0006C6824FA0CF73743AE68944026FA0CF861
:1042E000ED6806FA02F225FA0CFC42EA0C0644EAF2
:1042F0000804A7FB03C5A4FB0342A6FB03631C44FD
:104300009C4234BF0126002602EB0C03334416B155
:10431000934202D903E0934201D2012200E000223D
:104320002A4402F1200C9206DD0C42EA453200EEEE
:10433000102A5B03DFED210AF8EEC01A00EE103AF6
:104340004FEA9C1C11F0004FB8EE400AC0F800C0C4
:1043500020EE201A00EE104ADFED190AB8EE400AEE
:1043600020EE202A31EE810A30EE020A10EE102AE9
:1043700002F500626FF30B0200EE902A30EEE10AC4
:10438000DFED111A30EE410A32EE401A9FED0D0AB0
:1043900020EE800A01EE210A9FED0C1A00EE810A40
:1043A00004BFBDE8F0017047CCF180510160BDE869
:1043B000F001B1EE400A70477805000000000036B9
:1043C0000000802C22AAFD29DB0FC92F0000C92F75
:1043D00030380A2801D2012070470020704701B50B
:1043E00081B000200522009004E000920098411E58
:1043F0000091FBD20198411E0191F6D20CBD08B587
:1044000000EB4000C0000090411E009101D308461F
:10441000FAE708BD2DED0C8BFEF750FAFFF738FBDD
:10442000FFF7D2F8FFF7B2F8FFF75AF9FFF77CF978
:10443000FFF782FBFFF7C2F9FDF70CFEB7EE000AAB
:104440000020FDF747FEFDF77DFC82210020FDF7EF
:104450003FFCFDF70BFDB24EC1B2B2A03170FFF7C9
:1044600093FCB64C94ED090AB8EE400ADFEDB48A2D
:10447000B448C0EE281A94ED080AB8EE400A80EE5F
:10448000281A94ED070AB8EE400AC0EE280A94ED07
:10449000060AB8EE402A82EE280AFFF763F9FEF713
:1044A000FFF9DFEDA9DADFF8A482F7EE00CADFED4D
:1044B000A8BA9FEDA8DAB0EE00CA4FF08049DFED50
:1044C000A6AAA64F9F4DB1EE04AAF0600020FDF70A
:1044D0008DFC00EE100A7060B8EE400A20EE0A0A69
:1044E000C0EE2D0AC6ED020AFEF7DAF9F168401AAD
:1044F00000EE100AB8EE400AC0EE280AC6ED040A23
:10450000F5EEC00AF1EE10FA03D89FED950A86ED9C
:10451000040AFEF7C5F9F060A06A411E022977D8A7
:1045200094ED0F0A8F4AB0EE6A8AB8EE400AC0EEE8
:10453000280A94ED0B0AB8EE400A80EE28BA94EDF2
:10454000100AB8EE400A80EE289A20EEAB0AD6EDAB
:10455000040A20EE200AD6ED050A30EE800A10EE9D
:10456000101A86ED050A914203DD30EE6B0A86EDE6
:10457000050A01280BD002280CD0032813D0B5EE71
:10458000C08AF1EE10FA29D2B0EE6A8A26E0FFF76F
:10459000B1FD14E010EE100A404501DBB1EE4BBA5C
:1045A0003BEE098A0FE010EE100A404501DB3BEEBE
:1045B000C00A60EE0C0A80EE8D0A30EE6C0AB0EE96
:1045C000498A0BEE008AB5EEC08AF1EE10FADBD311
:1045D00018EE100AB84201DDB0EE4A8A0020B0EEB3
:1045E000480AFDF777FD85ED058A00BF96ED020AC2
:1045F00020EE280ABCEEC00A84ED040A95ED050AF7
:1046000020EE280ABCEEC00A84ED030A5EE7FFE74D
:10461000606B88B100EE100A0020F8EE400A80EED0
:10462000A80AFDF757FD94ED0D0AB8EE400AC0EE5A
:10463000280AC5ED050AD9E794ED090AF8EE400A03
:1046400080EEA80A85ED030AD4ED060AF8EE600AAA
:1046500080EEA82A85ED002AD4ED070AF8EE600A5C
:10466000C0EEA82AC5ED012AD4ED080AF8EE600ACA
:1046700080EEA81A85ED021AD4ED0E0AF8EE600A53
:10468000C0EEA81ADFED380A30EE601ADFED370A07
:1046900081EE208AC5ED0B1AB5EEC08AF1EE10FA54
:1046A00002D2B0EE6A8A05E018EE100AB84201DDC7
:1046B000B0EE4A8AD6ED020A96ED041A70EE600A50
:1046C00095ED060A00EE810A85ED060A95ED0A1AB7
:1046D000B4EEC10AF1EE10FA06DCB1EE411AB4EE06
:1046E000C10AF1EE10FA01D285ED061A95ED060A1F
:1046F00022EE800A02EE200A70EE219A19EE900A4C
:10470000484502DDF0EE4C9A06E019EE900AB0F151
:10471000404F01D9F8EE009A38EE298A53E700009D
:104720000000002041445331323536204944203DB9
:10473000203078253032580D0A0000001402002085
:1047400000007A4458020020FEFFFF4ADB0F494078
:10475000DB0FC940DB0F4940000000000000A04013
:104760006F12833ADB0FC9405EBA493EFED4783FF0
:1047700010B500290AD00878002807D005487844E9
:10478000FCF7A4FE002801D0002010BD02487844A8
:1047900010BD0000BE010000B601000010B50029E8
:1047A0000AD00878002807D005487844FCF78EFE28
:1047B000002801D0002010BD0248784410BD000040
:1047C000AE010000A60100004FF04070E1EE100ABB
:1047D0007047FCF796BAFCF7C9BB00061016000636
:1047E000101600000000000000000102030406078C
:1047F000080900000000010203040000000000009E
:104800000000000030313233343536373839414218
:104810004344454640305800303132333435363722
:1048200038396162636465664030780004000008CE
:104830000000000000000002000100001000000065
:10484000000000006E83F9A22915444ED15727FCC1
:10485000C0DD34F5999562DB4190433CAB6351FE7A
:1048600030313233343536373839616263646566E6
:10487000787000303132333435363738394142437D
:10488000444546585000000002400000000000A0CF
:104890000000000005400000000000C8000000000B
:1048A0000C4000000000409C000000001940000087
:1048B0000020BCBE0000000034400000BFC91B8EB9
:1048C00000000004B5400000504BCFD06607E2CF97
:1048D000010000006C4100003E8251AADFEEA734C7
:1048E00001000000D9420000DCB5A0E23A301F9779
:1048F000FFFFFFFFB4450000FD25A0C8E9A3C14F9D
:10490000FFFFFFFFFF3F00000000008000000000ED
:10491000FF3F00000000008000000000684A00081F
:104920000000002028000000C4010008904A000890
:1049300028000020300A0000E00100081C000000F0
:1049400043000000F8FFFFFF0C0000000E00000015
:104950000F0000002E0000001001000043000000C6
:10496000F8FFFFFF00404040404040404040414190
:104970004141414040404040404040404040404034
:1049800040404040400502020202020202020202CE
:1049900002020202022020202020202020202002CB
:1049A000020202020202909090909090101010105B
:1049B00010101010101010101010101010101010F7
:1049C000020202020202888888888888080808088B
:1049D0000808080808080808080808080808080857
:1049E000020202024000000000000000000000007F
:1049F00000000000000000000000000000000000B7
:104A000000000000000000000000000000000000A6
:104A10000000000000000000000000000000000096
:104A20000000000000000000000000000000000086
:104A30000000000000000000000000000000000076
:104A40000000000000000000000000000000000066
:104A50000000000000000000000000000000000056
:104A60000000000000000000000000000000000046
:104A70000000000000000000000000000000000036
:104A80000100000010000000000000000024F400FD
:040000050800018965
:00000001FF
